{"abi":[{"type":"constructor","inputs":[],"payable":false,"stateMutability":"nonpayable"},{"name":"greet","type":"function","inputs":[],"outputs":[{"name":"","type":"string","internalType":"string"}],"payable":false,"constant":true,"stateMutability":"view"},{"name":"setGreeting","type":"function","inputs":[{"name":"greeting","type":"string","internalType":"string"}],"outputs":[],"payable":false,"constant":false,"stateMutability":"nonpayable"},{"name":"owner","type":"function","inputs":[],"outputs":[{"name":"","type":"address","internalType":"address"}],"payable":false,"constant":true,"stateMutability":"view"},{"name":"kill","type":"function","inputs":[],"outputs":[],"payable":false,"constant":false,"stateMutability":"nonpayable"},{"name":"fillArray","type":"function","inputs":[],"outputs":[],"payable":false,"constant":false,"stateMutability":"nonpayable"},{"name":"setProfile","type":"function","inputs":[],"outputs":[],"payable":false,"constant":false,"stateMutability":"nonpayable"},{"name":"getProfile","type":"function","inputs":[],"outputs":[{"name":"","type":"string","internalType":"string"},{"name":"","type":"string","internalType":"string"},{"name":"","type":"string","internalType":"string"}],"payable":false,"constant":true,"stateMutability":"view"},{"name":"payGreeter","type":"function","inputs":[{"name":"NameID","type":"uint256","internalType":"uint256"}],"outputs":[{"name":"","type":"uint256","internalType":"uint256"}],"payable":true,"constant":false,"stateMutability":"payable"}],"devdoc":{"methods":{}},"source":"// \"SPDX-License-Identifier: UNLICENSED\"\npragma solidity >=0.4.0 <0.7.0;\n\n// import \"packages/lib/contracts/openzeppelin-solidity/ownership/Ownable.sol\";\ncontract Greeter {\n    string private _greeting;\n    address private _owner;\n    bytes32[] showArray;\n    bytes32[5] ShowFixedArray;\n    // uint256 NameID;\n    struct Profile {\n        string fName;\n        string lName;\n        string city;\n    }\n\n    Profile profile;\n\n    constructor() public {\n        _owner = msg.sender;\n        _greeting = \"Good Evening\";\n    }\n\n    modifier onlyOwner() {\n        require(msg.sender == _owner, \"Only Owner is allowed\");\n        _;\n    }\n\n    function greet() external view returns (string memory) {\n        return _greeting;\n    }\n\n    function setGreeting(string calldata greeting) external onlyOwner {\n        _greeting = greeting;\n    }\n\n    function owner() public view returns (address) {\n        return _owner;\n    }\n\n    function kill() public {\n        if (msg.sender == _owner) {\n            selfdestruct(msg.sender);\n        }\n    }\n\n    function fillArray() public {\n        ShowFixedArray[0] = \"Test1\";\n        showArray.push(\"Test2\");\n        return;\n    }\n\n    function setProfile() public {\n        profile = Profile(\"Elon\", \"Musk\", \"USA\");\n    }\n\n    function getProfile()\n        public\n        view\n        returns (\n            string memory,\n            string memory,\n            string memory\n        )\n    {\n        return (profile.fName, profile.lName, profile.city);\n    }\n\n    function payGreeter(uint256 NameID) public payable returns (uint256) {\n        return NameID;\n    }\n}\n","userdoc":{"methods":{}},"bytecode":"0x608060405234801561001057600080fd5b5033600160006101000a81548173ffffffffffffffffffffffffffffffffffffffff021916908373ffffffffffffffffffffffffffffffffffffffff1602179055506040518060400160405280600c81526020017f476f6f64204576656e696e6700000000000000000000000000000000000000008152506000908051906020019061009d9291906100a3565b50610148565b828054600181600116156101000203166002900490600052602060002090601f016020900481019282601f106100e457805160ff1916838001178555610112565b82800160010185558215610112579182015b828111156101115782518255916020019190600101906100f6565b5b50905061011f9190610123565b5090565b61014591905b80821115610141576000816000905550600101610129565b5090565b90565b610adf806101576000396000f3fe60806040526004361061007b5760003560e01c8063a41368621161004e578063a413686214610147578063cfae3217146101cd578063d6afc9b11461025d578063f460473e146103c55761007b565b806341c0e1b5146100805780638da5cb5b146100975780639bd65062146100ee5780639bfa18a114610105575b600080fd5b34801561008c57600080fd5b506100956103dc565b005b3480156100a357600080fd5b506100ac61044d565b604051808273ffffffffffffffffffffffffffffffffffffffff1673ffffffffffffffffffffffffffffffffffffffff16815260200191505060405180910390f35b3480156100fa57600080fd5b50610103610477565b005b6101316004803603602081101561011b57600080fd5b810190808035906020019092919050505061058f565b6040518082815260200191505060405180910390f35b34801561015357600080fd5b506101cb6004803603602081101561016a57600080fd5b810190808035906020019064010000000081111561018757600080fd5b82018360208201111561019957600080fd5b803590602001918460018302840111640100000000831117156101bb57600080fd5b9091929391929390505050610599565b005b3480156101d957600080fd5b506101e2610672565b6040518080602001828103825283818151815260200191508051906020019080838360005b83811015610222578082015181840152602081019050610207565b50505050905090810190601f16801561024f5780820380516001836020036101000a031916815260200191505b509250505060405180910390f35b34801561026957600080fd5b50610272610714565b60405180806020018060200180602001848103845287818151815260200191508051906020019080838360005b838110156102ba57808201518184015260208101905061029f565b50505050905090810190601f1680156102e75780820380516001836020036101000a031916815260200191505b50848103835286818151815260200191508051906020019080838360005b83811015610320578082015181840152602081019050610305565b50505050905090810190601f16801561034d5780820380516001836020036101000a031916815260200191505b50848103825285818151815260200191508051906020019080838360005b8381101561038657808201518184015260208101905061036b565b50505050905090810190601f1680156103b35780820380516001836020036101000a031916815260200191505b50965050505050505060405180910390f35b3480156103d157600080fd5b506103da610907565b005b600160009054906101000a900473ffffffffffffffffffffffffffffffffffffffff1673ffffffffffffffffffffffffffffffffffffffff163373ffffffffffffffffffffffffffffffffffffffff16141561044b573373ffffffffffffffffffffffffffffffffffffffff16ff5b565b6000600160009054906101000a900473ffffffffffffffffffffffffffffffffffffffff16905090565b60405180606001604052806040518060400160405280600481526020017f456c6f6e0000000000000000000000000000000000000000000000000000000081525081526020016040518060400160405280600481526020017f4d75736b0000000000000000000000000000000000000000000000000000000081525081526020016040518060400160405280600381526020017f55534100000000000000000000000000000000000000000000000000000000008152508152506008600082015181600001908051906020019061054f929190610985565b50602082015181600101908051906020019061056c929190610985565b506040820151816002019080519060200190610589929190610985565b50905050565b6000819050919050565b600160009054906101000a900473ffffffffffffffffffffffffffffffffffffffff1673ffffffffffffffffffffffffffffffffffffffff163373ffffffffffffffffffffffffffffffffffffffff161461065c576040517f08c379a00000000000000000000000000000000000000000000000000000000081526004018080602001828103825260158152602001807f4f6e6c79204f776e657220697320616c6c6f776564000000000000000000000081525060200191505060405180910390fd5b81816000919061066d929190610a05565b505050565b606060008054600181600116156101000203166002900480601f01602080910402602001604051908101604052809291908181526020018280546001816001161561010002031660029004801561070a5780601f106106df5761010080835404028352916020019161070a565b820191906000526020600020905b8154815290600101906020018083116106ed57829003601f168201915b5050505050905090565b6060806060600860000160086001016008600201828054600181600116156101000203166002900480601f0160208091040260200160405190810160405280929190818152602001828054600181600116156101000203166002900480156107bd5780601f10610792576101008083540402835291602001916107bd565b820191906000526020600020905b8154815290600101906020018083116107a057829003601f168201915b50505050509250818054600181600116156101000203166002900480601f0160208091040260200160405190810160405280929190818152602001828054600181600116156101000203166002900480156108595780601f1061082e57610100808354040283529160200191610859565b820191906000526020600020905b81548152906001019060200180831161083c57829003601f168201915b50505050509150808054600181600116156101000203166002900480601f0160208091040260200160405190810160405280929190818152602001828054600181600116156101000203166002900480156108f55780601f106108ca576101008083540402835291602001916108f5565b820191906000526020600020905b8154815290600101906020018083116108d857829003601f168201915b50505050509050925092509250909192565b7f5465737431000000000000000000000000000000000000000000000000000000600360006005811061093657fe5b018190555060028060018154018082558091505090600182039060005260206000200160007f546573743200000000000000000000000000000000000000000000000000000090919091505550565b828054600181600116156101000203166002900490600052602060002090601f016020900481019282601f106109c657805160ff19168380011785556109f4565b828001600101855582156109f4579182015b828111156109f35782518255916020019190600101906109d8565b5b509050610a019190610a85565b5090565b828054600181600116156101000203166002900490600052602060002090601f016020900481019282601f10610a4657803560ff1916838001178555610a74565b82800160010185558215610a74579182015b82811115610a73578235825591602001919060010190610a58565b5b509050610a819190610a85565b5090565b610aa791905b80821115610aa3576000816000905550600101610a8b565b5090565b9056fea265627a7a72315820fa4bc3e97f2072b6ffb7ed1f8b3848a776c2c91577aa298032d83a38bf6df87f64736f6c63430005100032","compiler":{"name":"solc","version":"0.5.16+commit.9c3226ce.Emscripten.clang"},"updatedAt":"2020-07-22T09:33:58.738Z","sourcePath":"/home/builduser/teams_workingdir/repo/contracts/Session2.sol","networkType":"ethereum","contractName":"Greeter","schemaVersion":"3.2.2"}