{
  "contractName": "Greeter",
  "abi": [
    {
      "inputs": [],
      "payable": false,
      "stateMutability": "nonpayable",
      "type": "constructor"
    },
    {
      "constant": true,
      "inputs": [],
      "name": "greet",
      "outputs": [
        {
          "internalType": "string",
          "name": "",
          "type": "string"
        }
      ],
      "payable": false,
      "stateMutability": "view",
      "type": "function"
    },
    {
      "constant": false,
      "inputs": [
        {
          "internalType": "string",
          "name": "greeting",
          "type": "string"
        }
      ],
      "name": "setGreeting",
      "outputs": [],
      "payable": false,
      "stateMutability": "nonpayable",
      "type": "function"
    },
    {
      "constant": true,
      "inputs": [],
      "name": "owner",
      "outputs": [
        {
          "internalType": "address",
          "name": "",
          "type": "address"
        }
      ],
      "payable": false,
      "stateMutability": "view",
      "type": "function"
    },
    {
      "constant": false,
      "inputs": [],
      "name": "kill",
      "outputs": [],
      "payable": false,
      "stateMutability": "nonpayable",
      "type": "function"
    },
    {
      "constant": false,
      "inputs": [],
      "name": "fillArray",
      "outputs": [],
      "payable": false,
      "stateMutability": "nonpayable",
      "type": "function"
    },
    {
      "constant": false,
      "inputs": [],
      "name": "setProfile",
      "outputs": [],
      "payable": false,
      "stateMutability": "nonpayable",
      "type": "function"
    },
    {
      "constant": true,
      "inputs": [],
      "name": "getProfile",
      "outputs": [
        {
          "internalType": "string",
          "name": "",
          "type": "string"
        },
        {
          "internalType": "string",
          "name": "",
          "type": "string"
        },
        {
          "internalType": "string",
          "name": "",
          "type": "string"
        }
      ],
      "payable": false,
      "stateMutability": "view",
      "type": "function"
    },
    {
      "constant": false,
      "inputs": [
        {
          "internalType": "uint256",
          "name": "NameID",
          "type": "uint256"
        }
      ],
      "name": "payGreeter",
      "outputs": [
        {
          "internalType": "uint256",
          "name": "",
          "type": "uint256"
        }
      ],
      "payable": true,
      "stateMutability": "payable",
      "type": "function"
    }
  ],
  "bytecode": "0x608060405234801561001057600080fd5b5033600160006101000a81548173ffffffffffffffffffffffffffffffffffffffff021916908373ffffffffffffffffffffffffffffffffffffffff160217905550610adf806100616000396000f3fe60806040526004361061007b5760003560e01c8063a41368621161004e578063a413686214610147578063cfae3217146101cd578063d6afc9b11461025d578063f460473e146103c55761007b565b806341c0e1b5146100805780638da5cb5b146100975780639bd65062146100ee5780639bfa18a114610105575b600080fd5b34801561008c57600080fd5b506100956103dc565b005b3480156100a357600080fd5b506100ac61044d565b604051808273ffffffffffffffffffffffffffffffffffffffff1673ffffffffffffffffffffffffffffffffffffffff16815260200191505060405180910390f35b3480156100fa57600080fd5b50610103610477565b005b6101316004803603602081101561011b57600080fd5b810190808035906020019092919050505061058f565b6040518082815260200191505060405180910390f35b34801561015357600080fd5b506101cb6004803603602081101561016a57600080fd5b810190808035906020019064010000000081111561018757600080fd5b82018360208201111561019957600080fd5b803590602001918460018302840111640100000000831117156101bb57600080fd5b9091929391929390505050610599565b005b3480156101d957600080fd5b506101e2610672565b6040518080602001828103825283818151815260200191508051906020019080838360005b83811015610222578082015181840152602081019050610207565b50505050905090810190601f16801561024f5780820380516001836020036101000a031916815260200191505b509250505060405180910390f35b34801561026957600080fd5b50610272610714565b60405180806020018060200180602001848103845287818151815260200191508051906020019080838360005b838110156102ba57808201518184015260208101905061029f565b50505050905090810190601f1680156102e75780820380516001836020036101000a031916815260200191505b50848103835286818151815260200191508051906020019080838360005b83811015610320578082015181840152602081019050610305565b50505050905090810190601f16801561034d5780820380516001836020036101000a031916815260200191505b50848103825285818151815260200191508051906020019080838360005b8381101561038657808201518184015260208101905061036b565b50505050905090810190601f1680156103b35780820380516001836020036101000a031916815260200191505b50965050505050505060405180910390f35b3480156103d157600080fd5b506103da610907565b005b600160009054906101000a900473ffffffffffffffffffffffffffffffffffffffff1673ffffffffffffffffffffffffffffffffffffffff163373ffffffffffffffffffffffffffffffffffffffff16141561044b573373ffffffffffffffffffffffffffffffffffffffff16ff5b565b6000600160009054906101000a900473ffffffffffffffffffffffffffffffffffffffff16905090565b60405180606001604052806040518060400160405280600481526020017f456c6f6e0000000000000000000000000000000000000000000000000000000081525081526020016040518060400160405280600481526020017f4d75736b0000000000000000000000000000000000000000000000000000000081525081526020016040518060400160405280600381526020017f55534100000000000000000000000000000000000000000000000000000000008152508152506008600082015181600001908051906020019061054f929190610985565b50602082015181600101908051906020019061056c929190610985565b506040820151816002019080519060200190610589929190610985565b50905050565b6000819050919050565b600160009054906101000a900473ffffffffffffffffffffffffffffffffffffffff1673ffffffffffffffffffffffffffffffffffffffff163373ffffffffffffffffffffffffffffffffffffffff161461065c576040517f08c379a00000000000000000000000000000000000000000000000000000000081526004018080602001828103825260158152602001807f4f6e6c79204f776e657220697320616c6c6f776564000000000000000000000081525060200191505060405180910390fd5b81816000919061066d929190610a05565b505050565b606060008054600181600116156101000203166002900480601f01602080910402602001604051908101604052809291908181526020018280546001816001161561010002031660029004801561070a5780601f106106df5761010080835404028352916020019161070a565b820191906000526020600020905b8154815290600101906020018083116106ed57829003601f168201915b5050505050905090565b6060806060600860000160086001016008600201828054600181600116156101000203166002900480601f0160208091040260200160405190810160405280929190818152602001828054600181600116156101000203166002900480156107bd5780601f10610792576101008083540402835291602001916107bd565b820191906000526020600020905b8154815290600101906020018083116107a057829003601f168201915b50505050509250818054600181600116156101000203166002900480601f0160208091040260200160405190810160405280929190818152602001828054600181600116156101000203166002900480156108595780601f1061082e57610100808354040283529160200191610859565b820191906000526020600020905b81548152906001019060200180831161083c57829003601f168201915b50505050509150808054600181600116156101000203166002900480601f0160208091040260200160405190810160405280929190818152602001828054600181600116156101000203166002900480156108f55780601f106108ca576101008083540402835291602001916108f5565b820191906000526020600020905b8154815290600101906020018083116108d857829003601f168201915b50505050509050925092509250909192565b7f5465737431000000000000000000000000000000000000000000000000000000600360006005811061093657fe5b018190555060028060018154018082558091505090600182039060005260206000200160007f546573743200000000000000000000000000000000000000000000000000000090919091505550565b828054600181600116156101000203166002900490600052602060002090601f016020900481019282601f106109c657805160ff19168380011785556109f4565b828001600101855582156109f4579182015b828111156109f35782518255916020019190600101906109d8565b5b509050610a019190610a85565b5090565b828054600181600116156101000203166002900490600052602060002090601f016020900481019282601f10610a4657803560ff1916838001178555610a74565b82800160010185558215610a74579182015b82811115610a73578235825591602001919060010190610a58565b5b509050610a819190610a85565b5090565b610aa791905b80821115610aa3576000816000905550600101610a8b565b5090565b9056fea265627a7a7231582018b05d0bd96ac4bf6ff18b115f4faf46fd0f732062a08219a5a423edd1e292e964736f6c63430005100032",
  "source": "// \"SPDX-License-Identifier: UNLICENSED\"\r\npragma solidity >=0.4.0 <0.7.0;\r\n\r\n// import \"packages/lib/contracts/openzeppelin-solidity/ownership/Ownable.sol\";\r\ncontract Greeter {\r\n    string private _greeting;\r\n    address private _owner;\r\n    bytes32[] showArray;\r\n    bytes32[5] ShowFixedArray;\r\n    // uint256 NameID;\r\n    struct Profile {\r\n        string fName;\r\n        string lName;\r\n        string city;\r\n    }\r\n\r\n    Profile profile;\r\n\r\n    constructor() public {\r\n        _owner = msg.sender;\r\n    }\r\n\r\n    modifier onlyOwner() {\r\n        require(msg.sender == _owner, \"Only Owner is allowed\");\r\n        _;\r\n    }\r\n\r\n    function greet() external view returns (string memory) {\r\n        return _greeting;\r\n    }\r\n\r\n    function setGreeting(string calldata greeting) external onlyOwner {\r\n        _greeting = greeting;\r\n    }\r\n\r\n    function owner() public view returns (address) {\r\n        return _owner;\r\n    }\r\n\r\n    function kill() public {\r\n        if (msg.sender == _owner) {\r\n            selfdestruct(msg.sender);\r\n        }\r\n    }\r\n\r\n    function fillArray() public {\r\n        ShowFixedArray[0] = \"Test1\";\r\n        showArray.push(\"Test2\");\r\n        return;\r\n    }\r\n\r\n    function setProfile() public {\r\n        profile = Profile(\"Elon\", \"Musk\", \"USA\");\r\n    }\r\n\r\n    function getProfile()\r\n        public\r\n        view\r\n        returns (\r\n            string memory,\r\n            string memory,\r\n            string memory\r\n        )\r\n    {\r\n        return (profile.fName, profile.lName, profile.city);\r\n    }\r\n\r\n    function payGreeter(uint256 NameID) public payable returns (uint256) {\r\n        return NameID;\r\n    }\r\n}\r\n",
  "sourcePath": "C:\\Users\\My1\\Desktop\\BSE\\Blockchain\\TestTruffle\\frontClient\\contracts\\Session2.sol",
  "compiler": {
    "name": "solc",
    "version": "0.5.16+commit.9c3226ce.Emscripten.clang"
  },
  "schemaVersion": "3.2.2",
  "updatedAt": "2020-07-20T09:54:24.848Z",
  "networkType": "ethereum",
  "devdoc": {
    "methods": {}
  },
  "userdoc": {
    "methods": {}
  }
}